{"abi":[{"type":"constructor","inputs":[],"stateMutability":"nonpayable"},{"type":"function","name":"allAssets","inputs":[{"name":"","type":"uint256","internalType":"uint256"}],"outputs":[{"name":"","type":"address","internalType":"address"}],"stateMutability":"view"},{"type":"function","name":"createAsset","inputs":[{"name":"name","type":"string","internalType":"string"},{"name":"symbol","type":"string","internalType":"string"}],"outputs":[{"name":"","type":"address","internalType":"address"}],"stateMutability":"nonpayable"},{"type":"function","name":"getAllAssets","inputs":[],"outputs":[{"name":"","type":"address[]","internalType":"address[]"}],"stateMutability":"view"},{"type":"function","name":"owner","inputs":[],"outputs":[{"name":"","type":"address","internalType":"address"}],"stateMutability":"view"},{"type":"function","name":"renounceOwnership","inputs":[],"outputs":[],"stateMutability":"nonpayable"},{"type":"function","name":"transferOwnership","inputs":[{"name":"newOwner","type":"address","internalType":"address"}],"outputs":[],"stateMutability":"nonpayable"},{"type":"event","name":"AssetCreated","inputs":[{"name":"assetAddress","type":"address","indexed":false,"internalType":"address"},{"name":"name","type":"string","indexed":false,"internalType":"string"},{"name":"symbol","type":"string","indexed":false,"internalType":"string"},{"name":"owner","type":"address","indexed":false,"internalType":"address"}],"anonymous":false},{"type":"event","name":"OwnershipTransferred","inputs":[{"name":"previousOwner","type":"address","indexed":true,"internalType":"address"},{"name":"newOwner","type":"address","indexed":true,"internalType":"address"}],"anonymous":false},{"type":"error","name":"OwnableInvalidOwner","inputs":[{"name":"owner","type":"address","internalType":"address"}]},{"type":"error","name":"OwnableUnauthorizedAccount","inputs":[{"name":"account","type":"address","internalType":"address"}]}],"bytecode":{"object":"0x608060405234801561000f575f5ffd5b50335f73ffffffffffffffffffffffffffffffffffffffff168173ffffffffffffffffffffffffffffffffffffffff1603610081575f6040517f1e4fbdf70000000000000000000000000000000000000000000000000000000081526004016100789190610196565b60405180910390fd5b6100908161009660201b60201c565b506101af565b5f5f5f9054906101000a900473ffffffffffffffffffffffffffffffffffffffff169050815f5f6101000a81548173ffffffffffffffffffffffffffffffffffffffff021916908373ffffffffffffffffffffffffffffffffffffffff1602179055508173ffffffffffffffffffffffffffffffffffffffff168173ffffffffffffffffffffffffffffffffffffffff167f8be0079c531659141344cd1fd0a4f28419497f9722a3daafe3b4186f6b6457e060405160405180910390a35050565b5f73ffffffffffffffffffffffffffffffffffffffff82169050919050565b5f61018082610157565b9050919050565b61019081610176565b82525050565b5f6020820190506101a95f830184610187565b92915050565b612292806101bc5f395ff3fe608060405234801561000f575f5ffd5b5060043610610060575f3560e01c80632acada4d14610064578063578e5c2214610082578063715018a6146100b25780638da5cb5b146100bc578063a2a55b68146100da578063f2fde38b1461010a575b5f5ffd5b61006c610126565b60405161007991906105cd565b60405180910390f35b61009c60048036038101906100979190610631565b6101b1565b6040516100a9919061066b565b60405180910390f35b6100ba6101ec565b005b6100c46101ff565b6040516100d1919061066b565b60405180910390f35b6100f460048036038101906100ef91906107c0565b610226565b604051610101919061066b565b60405180910390f35b610124600480360381019061011f9190610860565b610306565b005b606060018054806020026020016040519081016040528092919081815260200182805480156101a757602002820191905f5260205f20905b815f9054906101000a900473ffffffffffffffffffffffffffffffffffffffff1673ffffffffffffffffffffffffffffffffffffffff168152602001906001019080831161015e575b5050505050905090565b600181815481106101c0575f80fd5b905f5260205f20015f915054906101000a900473ffffffffffffffffffffffffffffffffffffffff1681565b6101f461038a565b6101fd5f610411565b565b5f5f5f9054906101000a900473ffffffffffffffffffffffffffffffffffffffff16905090565b5f5f838333604051610237906104d9565b610243939291906108eb565b604051809103905ff08015801561025c573d5f5f3e3d5ffd5b509050600181908060018154018082558091505060019003905f5260205f20015f9091909190916101000a81548173ffffffffffffffffffffffffffffffffffffffff021916908373ffffffffffffffffffffffffffffffffffffffff1602179055507fd74bdcb8b9251ab993ae74d1d5a439c33d392a2d08f4a397e07e062f09a8be33818585336040516102f4949392919061092e565b60405180910390a18091505092915050565b61030e61038a565b5f73ffffffffffffffffffffffffffffffffffffffff168173ffffffffffffffffffffffffffffffffffffffff160361037e575f6040517f1e4fbdf7000000000000000000000000000000000000000000000000000000008152600401610375919061066b565b60405180910390fd5b61038781610411565b50565b6103926104d2565b73ffffffffffffffffffffffffffffffffffffffff166103b06101ff565b73ffffffffffffffffffffffffffffffffffffffff161461040f576103d36104d2565b6040517f118cdaa7000000000000000000000000000000000000000000000000000000008152600401610406919061066b565b60405180910390fd5b565b5f5f5f9054906101000a900473ffffffffffffffffffffffffffffffffffffffff169050815f5f6101000a81548173ffffffffffffffffffffffffffffffffffffffff021916908373ffffffffffffffffffffffffffffffffffffffff1602179055508173ffffffffffffffffffffffffffffffffffffffff168173ffffffffffffffffffffffffffffffffffffffff167f8be0079c531659141344cd1fd0a4f28419497f9722a3daafe3b4186f6b6457e060405160405180910390a35050565b5f33905090565b6118dd8061098083390190565b5f81519050919050565b5f82825260208201905092915050565b5f819050602082019050919050565b5f73ffffffffffffffffffffffffffffffffffffffff82169050919050565b5f6105388261050f565b9050919050565b6105488161052e565b82525050565b5f610559838361053f565b60208301905092915050565b5f602082019050919050565b5f61057b826104e6565b61058581856104f0565b935061059083610500565b805f5b838110156105c05781516105a7888261054e565b97506105b283610565565b925050600181019050610593565b5085935050505092915050565b5f6020820190508181035f8301526105e58184610571565b905092915050565b5f604051905090565b5f5ffd5b5f5ffd5b5f819050919050565b610610816105fe565b811461061a575f5ffd5b50565b5f8135905061062b81610607565b92915050565b5f60208284031215610646576106456105f6565b5b5f6106538482850161061d565b91505092915050565b6106658161052e565b82525050565b5f60208201905061067e5f83018461065c565b92915050565b5f5ffd5b5f5ffd5b5f601f19601f8301169050919050565b7f4e487b71000000000000000000000000000000000000000000000000000000005f52604160045260245ffd5b6106d28261068c565b810181811067ffffffffffffffff821117156106f1576106f061069c565b5b80604052505050565b5f6107036105ed565b905061070f82826106c9565b919050565b5f67ffffffffffffffff82111561072e5761072d61069c565b5b6107378261068c565b9050602081019050919050565b828183375f83830152505050565b5f61076461075f84610714565b6106fa565b9050828152602081018484840111156107805761077f610688565b5b61078b848285610744565b509392505050565b5f82601f8301126107a7576107a6610684565b5b81356107b7848260208601610752565b91505092915050565b5f5f604083850312156107d6576107d56105f6565b5b5f83013567ffffffffffffffff8111156107f3576107f26105fa565b5b6107ff85828601610793565b925050602083013567ffffffffffffffff8111156108205761081f6105fa565b5b61082c85828601610793565b9150509250929050565b61083f8161052e565b8114610849575f5ffd5b50565b5f8135905061085a81610836565b92915050565b5f60208284031215610875576108746105f6565b5b5f6108828482850161084c565b91505092915050565b5f81519050919050565b5f82825260208201905092915050565b8281835e5f83830152505050565b5f6108bd8261088b565b6108c78185610895565b93506108d78185602086016108a5565b6108e08161068c565b840191505092915050565b5f6060820190508181035f83015261090381866108b3565b9050818103602083015261091781856108b3565b9050610926604083018461065c565b949350505050565b5f6080820190506109415f83018761065c565b818103602083015261095381866108b3565b9050818103604083015261096781856108b3565b9050610976606083018461065c565b9594505050505056fe608060405234801561000f575f5ffd5b506040516118dd3803806118dd83398181016040528101906100319190610348565b808383816003908161004391906105f1565b50806004908161005391906105f1565b5050505f73ffffffffffffffffffffffffffffffffffffffff168173ffffffffffffffffffffffffffffffffffffffff16036100c6575f6040517f1e4fbdf70000000000000000000000000000000000000000000000000000000081526004016100bd91906106cf565b60405180910390fd5b6100d5816100de60201b60201c565b505050506106e8565b5f60055f9054906101000a900473ffffffffffffffffffffffffffffffffffffffff1690508160055f6101000a81548173ffffffffffffffffffffffffffffffffffffffff021916908373ffffffffffffffffffffffffffffffffffffffff1602179055508173ffffffffffffffffffffffffffffffffffffffff168173ffffffffffffffffffffffffffffffffffffffff167f8be0079c531659141344cd1fd0a4f28419497f9722a3daafe3b4186f6b6457e060405160405180910390a35050565b5f604051905090565b5f5ffd5b5f5ffd5b5f5ffd5b5f5ffd5b5f601f19601f8301169050919050565b7f4e487b71000000000000000000000000000000000000000000000000000000005f52604160045260245ffd5b610200826101ba565b810181811067ffffffffffffffff8211171561021f5761021e6101ca565b5b80604052505050565b5f6102316101a1565b905061023d82826101f7565b919050565b5f67ffffffffffffffff82111561025c5761025b6101ca565b5b610265826101ba565b9050602081019050919050565b8281835e5f83830152505050565b5f61029261028d84610242565b610228565b9050828152602081018484840111156102ae576102ad6101b6565b5b6102b9848285610272565b509392505050565b5f82601f8301126102d5576102d46101b2565b5b81516102e5848260208601610280565b91505092915050565b5f73ffffffffffffffffffffffffffffffffffffffff82169050919050565b5f610317826102ee565b9050919050565b6103278161030d565b8114610331575f5ffd5b50565b5f815190506103428161031e565b92915050565b5f5f5f6060848603121561035f5761035e6101aa565b5b5f84015167ffffffffffffffff81111561037c5761037b6101ae565b5b610388868287016102c1565b935050602084015167ffffffffffffffff8111156103a9576103a86101ae565b5b6103b5868287016102c1565b92505060406103c686828701610334565b9150509250925092565b5f81519050919050565b7f4e487b71000000000000000000000000000000000000000000000000000000005f52602260045260245ffd5b5f600282049050600182168061041e57607f821691505b602082108103610431576104306103da565b5b50919050565b5f819050815f5260205f209050919050565b5f6020601f8301049050919050565b5f82821b905092915050565b5f600883026104937fffffffffffffffffffffffffffffffffffffffffffffffffffffffffffffffff82610458565b61049d8683610458565b95508019841693508086168417925050509392505050565b5f819050919050565b5f819050919050565b5f6104e16104dc6104d7846104b5565b6104be565b6104b5565b9050919050565b5f819050919050565b6104fa836104c7565b61050e610506826104e8565b848454610464565b825550505050565b5f5f905090565b610525610516565b6105308184846104f1565b505050565b5f5b828110156105565761054b5f82840161051d565b600181019050610537565b505050565b601f8211156105a957828211156105a85761057581610437565b61057e83610449565b61058785610449565b6020861015610594575f90505b8083016105a382840382610535565b505050505b5b505050565b5f82821c905092915050565b5f6105c95f19846008026105ae565b1980831691505092915050565b5f6105e183836105ba565b9150826002028217905092915050565b6105fa826103d0565b67ffffffffffffffff811115610613576106126101ca565b5b61061d8254610407565b61062882828561055b565b5f60209050601f831160018114610659575f8415610647578287015190505b61065185826105d6565b8655506106b8565b601f19841661066786610437565b5f5b8281101561068e57848901518255600182019150602085019450602081019050610669565b868310156106ab57848901516106a7601f8916826105ba565b8355505b6001600288020188555050505b505050505050565b6106c98161030d565b82525050565b5f6020820190506106e25f8301846106c0565b92915050565b6111e8806106f55f395ff3fe608060405234801561000f575f5ffd5b50600436106100e8575f3560e01c80638da5cb5b1161008a578063a9059cbb11610064578063a9059cbb14610238578063cda5805914610268578063dd62ed3e14610284578063f2fde38b146102b4576100e8565b80638da5cb5b146101e057806395d89b41146101fe578063a261ea561461021c576100e8565b806323b872dd116100c657806323b872dd14610158578063313ce5671461018857806370a08231146101a6578063715018a6146101d6576100e8565b806306fdde03146100ec578063095ea7b31461010a57806318160ddd1461013a575b5f5ffd5b6100f46102d0565b6040516101019190610e61565b60405180910390f35b610124600480360381019061011f9190610f12565b610360565b6040516101319190610f6a565b60405180910390f35b610142610382565b60405161014f9190610f92565b60405180910390f35b610172600480360381019061016d9190610fab565b61038b565b60405161017f9190610f6a565b60405180910390f35b6101906103b9565b60405161019d9190611016565b60405180910390f35b6101c060048036038101906101bb919061102f565b6103c1565b6040516101cd9190610f92565b60405180910390f35b6101de610406565b005b6101e8610419565b6040516101f59190611069565b60405180910390f35b610206610441565b6040516102139190610e61565b60405180910390f35b61023660048036038101906102319190610f12565b6104d1565b005b610252600480360381019061024d9190610f12565b6104e7565b60405161025f9190610f6a565b60405180910390f35b610282600480360381019061027d9190610f12565b610509565b005b61029e60048036038101906102999190611082565b61051f565b6040516102ab9190610f92565b60405180910390f35b6102ce60048036038101906102c9919061102f565b6105a1565b005b6060600380546102df906110ed565b80601f016020809104026020016040519081016040528092919081815260200182805461030b906110ed565b80156103565780601f1061032d57610100808354040283529160200191610356565b820191905f5260205f20905b81548152906001019060200180831161033957829003601f168201915b5050505050905090565b5f5f61036a610625565b905061037781858561062c565b600191505092915050565b5f600254905090565b5f5f610395610625565b90506103a285828561063e565b6103ad8585856106d1565b60019150509392505050565b5f6012905090565b5f5f5f8373ffffffffffffffffffffffffffffffffffffffff1673ffffffffffffffffffffffffffffffffffffffff1681526020019081526020015f20549050919050565b61040e6107c1565b6104175f610848565b565b5f60055f9054906101000a900473ffffffffffffffffffffffffffffffffffffffff16905090565b606060048054610450906110ed565b80601f016020809104026020016040519081016040528092919081815260200182805461047c906110ed565b80156104c75780601f1061049e576101008083540402835291602001916104c7565b820191905f5260205f20905b8154815290600101906020018083116104aa57829003601f168201915b5050505050905090565b6104d96107c1565b6104e3828261090b565b5050565b5f5f6104f1610625565b90506104fe8185856106d1565b600191505092915050565b6105116107c1565b61051b828261098a565b5050565b5f60015f8473ffffffffffffffffffffffffffffffffffffffff1673ffffffffffffffffffffffffffffffffffffffff1681526020019081526020015f205f8373ffffffffffffffffffffffffffffffffffffffff1673ffffffffffffffffffffffffffffffffffffffff1681526020019081526020015f2054905092915050565b6105a96107c1565b5f73ffffffffffffffffffffffffffffffffffffffff168173ffffffffffffffffffffffffffffffffffffffff1603610619575f6040517f1e4fbdf70000000000000000000000000000000000000000000000000000000081526004016106109190611069565b60405180910390fd5b61062281610848565b50565b5f33905090565b6106398383836001610a09565b505050565b5f610649848461051f565b90507fffffffffffffffffffffffffffffffffffffffffffffffffffffffffffffffff8110156106cb57818110156106bc578281836040517ffb8f41b20000000000000000000000000000000000000000000000000000000081526004016106b39392919061111d565b60405180910390fd5b6106ca84848484035f610a09565b5b50505050565b5f73ffffffffffffffffffffffffffffffffffffffff168373ffffffffffffffffffffffffffffffffffffffff1603610741575f6040517f96c6fd1e0000000000000000000000000000000000000000000000000000000081526004016107389190611069565b60405180910390fd5b5f73ffffffffffffffffffffffffffffffffffffffff168273ffffffffffffffffffffffffffffffffffffffff16036107b1575f6040517fec442f050000000000000000000000000000000000000000000000000000000081526004016107a89190611069565b60405180910390fd5b6107bc838383610bd8565b505050565b6107c9610625565b73ffffffffffffffffffffffffffffffffffffffff166107e7610419565b73ffffffffffffffffffffffffffffffffffffffff16146108465761080a610625565b6040517f118cdaa700000000000000000000000000000000000000000000000000000000815260040161083d9190611069565b60405180910390fd5b565b5f60055f9054906101000a900473ffffffffffffffffffffffffffffffffffffffff1690508160055f6101000a81548173ffffffffffffffffffffffffffffffffffffffff021916908373ffffffffffffffffffffffffffffffffffffffff1602179055508173ffffffffffffffffffffffffffffffffffffffff168173ffffffffffffffffffffffffffffffffffffffff167f8be0079c531659141344cd1fd0a4f28419497f9722a3daafe3b4186f6b6457e060405160405180910390a35050565b5f73ffffffffffffffffffffffffffffffffffffffff168273ffffffffffffffffffffffffffffffffffffffff160361097b575f6040517fec442f050000000000000000000000000000000000000000000000000000000081526004016109729190611069565b60405180910390fd5b6109865f8383610bd8565b5050565b5f73ffffffffffffffffffffffffffffffffffffffff168273ffffffffffffffffffffffffffffffffffffffff16036109fa575f6040517f96c6fd1e0000000000000000000000000000000000000000000000000000000081526004016109f19190611069565b60405180910390fd5b610a05825f83610bd8565b5050565b5f73ffffffffffffffffffffffffffffffffffffffff168473ffffffffffffffffffffffffffffffffffffffff1603610a79575f6040517fe602df05000000000000000000000000000000000000000000000000000000008152600401610a709190611069565b60405180910390fd5b5f73ffffffffffffffffffffffffffffffffffffffff168373ffffffffffffffffffffffffffffffffffffffff1603610ae9575f6040517f94280d62000000000000000000000000000000000000000000000000000000008152600401610ae09190611069565b60405180910390fd5b8160015f8673ffffffffffffffffffffffffffffffffffffffff1673ffffffffffffffffffffffffffffffffffffffff1681526020019081526020015f205f8573ffffffffffffffffffffffffffffffffffffffff1673ffffffffffffffffffffffffffffffffffffffff1681526020019081526020015f20819055508015610bd2578273ffffffffffffffffffffffffffffffffffffffff168473ffffffffffffffffffffffffffffffffffffffff167f8c5be1e5ebec7d5bd14f71427d1e84f3dd0314c0f7b2291e5b200ac8c7c3b92584604051610bc99190610f92565b60405180910390a35b50505050565b5f73ffffffffffffffffffffffffffffffffffffffff168373ffffffffffffffffffffffffffffffffffffffff1603610c28578060025f828254610c1c919061117f565b92505081905550610cf6565b5f5f5f8573ffffffffffffffffffffffffffffffffffffffff1673ffffffffffffffffffffffffffffffffffffffff1681526020019081526020015f2054905081811015610cb1578381836040517fe450d38c000000000000000000000000000000000000000000000000000000008152600401610ca89392919061111d565b60405180910390fd5b8181035f5f8673ffffffffffffffffffffffffffffffffffffffff1673ffffffffffffffffffffffffffffffffffffffff1681526020019081526020015f2081905550505b5f73ffffffffffffffffffffffffffffffffffffffff168273ffffffffffffffffffffffffffffffffffffffff1603610d3d578060025f8282540392505081905550610d87565b805f5f8473ffffffffffffffffffffffffffffffffffffffff1673ffffffffffffffffffffffffffffffffffffffff1681526020019081526020015f205f82825401925050819055505b8173ffffffffffffffffffffffffffffffffffffffff168373ffffffffffffffffffffffffffffffffffffffff167fddf252ad1be2c89b69c2b068fc378daa952ba7f163c4a11628f55a4df523b3ef83604051610de49190610f92565b60405180910390a3505050565b5f81519050919050565b5f82825260208201905092915050565b8281835e5f83830152505050565b5f601f19601f8301169050919050565b5f610e3382610df1565b610e3d8185610dfb565b9350610e4d818560208601610e0b565b610e5681610e19565b840191505092915050565b5f6020820190508181035f830152610e798184610e29565b905092915050565b5f5ffd5b5f73ffffffffffffffffffffffffffffffffffffffff82169050919050565b5f610eae82610e85565b9050919050565b610ebe81610ea4565b8114610ec8575f5ffd5b50565b5f81359050610ed981610eb5565b92915050565b5f819050919050565b610ef181610edf565b8114610efb575f5ffd5b50565b5f81359050610f0c81610ee8565b92915050565b5f5f60408385031215610f2857610f27610e81565b5b5f610f3585828601610ecb565b9250506020610f4685828601610efe565b9150509250929050565b5f8115159050919050565b610f6481610f50565b82525050565b5f602082019050610f7d5f830184610f5b565b92915050565b610f8c81610edf565b82525050565b5f602082019050610fa55f830184610f83565b92915050565b5f5f5f60608486031215610fc257610fc1610e81565b5b5f610fcf86828701610ecb565b9350506020610fe086828701610ecb565b9250506040610ff186828701610efe565b9150509250925092565b5f60ff82169050919050565b61101081610ffb565b82525050565b5f6020820190506110295f830184611007565b92915050565b5f6020828403121561104457611043610e81565b5b5f61105184828501610ecb565b91505092915050565b61106381610ea4565b82525050565b5f60208201905061107c5f83018461105a565b92915050565b5f5f6040838503121561109857611097610e81565b5b5f6110a585828601610ecb565b92505060206110b685828601610ecb565b9150509250929050565b7f4e487b71000000000000000000000000000000000000000000000000000000005f52602260045260245ffd5b5f600282049050600182168061110457607f821691505b602082108103611117576111166110c0565b5b50919050565b5f6060820190506111305f83018661105a565b61113d6020830185610f83565b61114a6040830184610f83565b949350505050565b7f4e487b71000000000000000000000000000000000000000000000000000000005f52601160045260245ffd5b5f61118982610edf565b915061119483610edf565b92508282019050808211156111ac576111ab611152565b5b9291505056fea2646970667358221220b377d772d6b68a174db02d1e3a406decd058476ee488f7f76f3e59973861484f64736f6c63430008210033a264697066735822122089c4c3188c3e46864b15e7f147c5772d1d97ab1121ffccb93a7a976fac8c1a9d64736f6c63430008210033","linkReferences":{}},"methodIdentifiers":{"allAssets(uint256)":"578e5c22","createAsset(string,string)":"a2a55b68","getAllAssets()":"2acada4d","owner()":"8da5cb5b","renounceOwnership()":"715018a6","transferOwnership(address)":"f2fde38b"},"id":22}