{"abi":[{"type":"constructor","inputs":[{"name":"_name","type":"string","internalType":"string"},{"name":"_symbol","type":"string","internalType":"string"},{"name":"_owner","type":"address","internalType":"address"}],"stateMutability":"nonpayable"},{"type":"function","name":"allowance","inputs":[{"name":"owner","type":"address","internalType":"address"},{"name":"spender","type":"address","internalType":"address"}],"outputs":[{"name":"","type":"uint256","internalType":"uint256"}],"stateMutability":"view"},{"type":"function","name":"approve","inputs":[{"name":"spender","type":"address","internalType":"address"},{"name":"value","type":"uint256","internalType":"uint256"}],"outputs":[{"name":"","type":"bool","internalType":"bool"}],"stateMutability":"nonpayable"},{"type":"function","name":"balanceOf","inputs":[{"name":"account","type":"address","internalType":"address"}],"outputs":[{"name":"","type":"uint256","internalType":"uint256"}],"stateMutability":"view"},{"type":"function","name":"burnItems","inputs":[{"name":"wallet","type":"address","internalType":"address"},{"name":"amount","type":"uint256","internalType":"uint256"}],"outputs":[],"stateMutability":"nonpayable"},{"type":"function","name":"decimals","inputs":[],"outputs":[{"name":"","type":"uint8","internalType":"uint8"}],"stateMutability":"view"},{"type":"function","name":"name","inputs":[],"outputs":[{"name":"","type":"string","internalType":"string"}],"stateMutability":"view"},{"type":"function","name":"owner","inputs":[],"outputs":[{"name":"","type":"address","internalType":"address"}],"stateMutability":"view"},{"type":"function","name":"renounceOwnership","inputs":[],"outputs":[],"stateMutability":"nonpayable"},{"type":"function","name":"symbol","inputs":[],"outputs":[{"name":"","type":"string","internalType":"string"}],"stateMutability":"view"},{"type":"function","name":"tokenizeItems","inputs":[{"name":"wallet","type":"address","internalType":"address"},{"name":"amount","type":"uint256","internalType":"uint256"}],"outputs":[],"stateMutability":"nonpayable"},{"type":"function","name":"totalSupply","inputs":[],"outputs":[{"name":"","type":"uint256","internalType":"uint256"}],"stateMutability":"view"},{"type":"function","name":"transfer","inputs":[{"name":"to","type":"address","internalType":"address"},{"name":"value","type":"uint256","internalType":"uint256"}],"outputs":[{"name":"","type":"bool","internalType":"bool"}],"stateMutability":"nonpayable"},{"type":"function","name":"transferFrom","inputs":[{"name":"from","type":"address","internalType":"address"},{"name":"to","type":"address","internalType":"address"},{"name":"value","type":"uint256","internalType":"uint256"}],"outputs":[{"name":"","type":"bool","internalType":"bool"}],"stateMutability":"nonpayable"},{"type":"function","name":"transferOwnership","inputs":[{"name":"newOwner","type":"address","internalType":"address"}],"outputs":[],"stateMutability":"nonpayable"},{"type":"event","name":"Approval","inputs":[{"name":"owner","type":"address","indexed":true,"internalType":"address"},{"name":"spender","type":"address","indexed":true,"internalType":"address"},{"name":"value","type":"uint256","indexed":false,"internalType":"uint256"}],"anonymous":false},{"type":"event","name":"OwnershipTransferred","inputs":[{"name":"previousOwner","type":"address","indexed":true,"internalType":"address"},{"name":"newOwner","type":"address","indexed":true,"internalType":"address"}],"anonymous":false},{"type":"event","name":"Transfer","inputs":[{"name":"from","type":"address","indexed":true,"internalType":"address"},{"name":"to","type":"address","indexed":true,"internalType":"address"},{"name":"value","type":"uint256","indexed":false,"internalType":"uint256"}],"anonymous":false},{"type":"error","name":"ERC20InsufficientAllowance","inputs":[{"name":"spender","type":"address","internalType":"address"},{"name":"allowance","type":"uint256","internalType":"uint256"},{"name":"needed","type":"uint256","internalType":"uint256"}]},{"type":"error","name":"ERC20InsufficientBalance","inputs":[{"name":"sender","type":"address","internalType":"address"},{"name":"balance","type":"uint256","internalType":"uint256"},{"name":"needed","type":"uint256","internalType":"uint256"}]},{"type":"error","name":"ERC20InvalidApprover","inputs":[{"name":"approver","type":"address","internalType":"address"}]},{"type":"error","name":"ERC20InvalidReceiver","inputs":[{"name":"receiver","type":"address","internalType":"address"}]},{"type":"error","name":"ERC20InvalidSender","inputs":[{"name":"sender","type":"address","internalType":"address"}]},{"type":"error","name":"ERC20InvalidSpender","inputs":[{"name":"spender","type":"address","internalType":"address"}]},{"type":"error","name":"OwnableInvalidOwner","inputs":[{"name":"owner","type":"address","internalType":"address"}]},{"type":"error","name":"OwnableUnauthorizedAccount","inputs":[{"name":"account","type":"address","internalType":"address"}]}],"bytecode":{"object":"0x608060405234801562000010575f80fd5b506040516200198438038062001984833981810160405281019062000036919062000396565b80838381600390816200004a919062000664565b5080600490816200005c919062000664565b5050505f73ffffffffffffffffffffffffffffffffffffffff168173ffffffffffffffffffffffffffffffffffffffff1603620000d2575f6040517f1e4fbdf7000000000000000000000000000000000000000000000000000000008152600401620000c9919062000759565b60405180910390fd5b620000e381620000ed60201b60201c565b5050505062000774565b5f60055f9054906101000a900473ffffffffffffffffffffffffffffffffffffffff1690508160055f6101000a81548173ffffffffffffffffffffffffffffffffffffffff021916908373ffffffffffffffffffffffffffffffffffffffff1602179055508173ffffffffffffffffffffffffffffffffffffffff168173ffffffffffffffffffffffffffffffffffffffff167f8be0079c531659141344cd1fd0a4f28419497f9722a3daafe3b4186f6b6457e060405160405180910390a35050565b5f604051905090565b5f80fd5b5f80fd5b5f80fd5b5f80fd5b5f601f19601f8301169050919050565b7f4e487b71000000000000000000000000000000000000000000000000000000005f52604160045260245ffd5b6200021182620001c9565b810181811067ffffffffffffffff82111715620002335762000232620001d9565b5b80604052505050565b5f62000247620001b0565b905062000255828262000206565b919050565b5f67ffffffffffffffff821115620002775762000276620001d9565b5b6200028282620001c9565b9050602081019050919050565b5f5b83811015620002ae57808201518184015260208101905062000291565b5f8484015250505050565b5f620002cf620002c9846200025a565b6200023c565b905082815260208101848484011115620002ee57620002ed620001c5565b5b620002fb8482856200028f565b509392505050565b5f82601f8301126200031a5762000319620001c1565b5b81516200032c848260208601620002b9565b91505092915050565b5f73ffffffffffffffffffffffffffffffffffffffff82169050919050565b5f620003608262000335565b9050919050565b620003728162000354565b81146200037d575f80fd5b50565b5f81519050620003908162000367565b92915050565b5f805f60608486031215620003b057620003af620001b9565b5b5f84015167ffffffffffffffff811115620003d057620003cf620001bd565b5b620003de8682870162000303565b935050602084015167ffffffffffffffff811115620004025762000401620001bd565b5b620004108682870162000303565b9250506040620004238682870162000380565b9150509250925092565b5f81519050919050565b7f4e487b71000000000000000000000000000000000000000000000000000000005f52602260045260245ffd5b5f60028204905060018216806200047c57607f821691505b60208210810362000492576200049162000437565b5b50919050565b5f819050815f5260205f209050919050565b5f6020601f8301049050919050565b5f82821b905092915050565b5f60088302620004f67fffffffffffffffffffffffffffffffffffffffffffffffffffffffffffffffff82620004b9565b620005028683620004b9565b95508019841693508086168417925050509392505050565b5f819050919050565b5f819050919050565b5f6200054c6200054662000540846200051a565b62000523565b6200051a565b9050919050565b5f819050919050565b62000567836200052c565b6200057f620005768262000553565b848454620004c5565b825550505050565b5f90565b6200059562000587565b620005a28184846200055c565b505050565b5b81811015620005c957620005bd5f826200058b565b600181019050620005a8565b5050565b601f8211156200061857620005e28162000498565b620005ed84620004aa565b81016020851015620005fd578190505b620006156200060c85620004aa565b830182620005a7565b50505b505050565b5f82821c905092915050565b5f6200063a5f19846008026200061d565b1980831691505092915050565b5f62000654838362000629565b9150826002028217905092915050565b6200066f826200042d565b67ffffffffffffffff8111156200068b576200068a620001d9565b5b62000697825462000464565b620006a4828285620005cd565b5f60209050601f831160018114620006da575f8415620006c5578287015190505b620006d1858262000647565b86555062000740565b601f198416620006ea8662000498565b5f5b828110156200071357848901518255600182019150602085019450602081019050620006ec565b868310156200073357848901516200072f601f89168262000629565b8355505b6001600288020188555050505b505050505050565b620007538162000354565b82525050565b5f6020820190506200076e5f83018462000748565b92915050565b61120280620007825f395ff3fe608060405234801561000f575f80fd5b50600436106100e8575f3560e01c80638da5cb5b1161008a578063a9059cbb11610064578063a9059cbb14610238578063cda5805914610268578063dd62ed3e14610284578063f2fde38b146102b4576100e8565b80638da5cb5b146101e057806395d89b41146101fe578063a261ea561461021c576100e8565b806323b872dd116100c657806323b872dd14610158578063313ce5671461018857806370a08231146101a6578063715018a6146101d6576100e8565b806306fdde03146100ec578063095ea7b31461010a57806318160ddd1461013a575b5f80fd5b6100f46102d0565b6040516101019190610e7b565b60405180910390f35b610124600480360381019061011f9190610f2c565b610360565b6040516101319190610f84565b60405180910390f35b610142610382565b60405161014f9190610fac565b60405180910390f35b610172600480360381019061016d9190610fc5565b61038b565b60405161017f9190610f84565b60405180910390f35b6101906103b9565b60405161019d9190611030565b60405180910390f35b6101c060048036038101906101bb9190611049565b6103c1565b6040516101cd9190610fac565b60405180910390f35b6101de610406565b005b6101e8610419565b6040516101f59190611083565b60405180910390f35b610206610441565b6040516102139190610e7b565b60405180910390f35b61023660048036038101906102319190610f2c565b6104d1565b005b610252600480360381019061024d9190610f2c565b6104e7565b60405161025f9190610f84565b60405180910390f35b610282600480360381019061027d9190610f2c565b610509565b005b61029e6004803603810190610299919061109c565b61051f565b6040516102ab9190610fac565b60405180910390f35b6102ce60048036038101906102c99190611049565b6105a1565b005b6060600380546102df90611107565b80601f016020809104026020016040519081016040528092919081815260200182805461030b90611107565b80156103565780601f1061032d57610100808354040283529160200191610356565b820191905f5260205f20905b81548152906001019060200180831161033957829003601f168201915b5050505050905090565b5f8061036a610625565b905061037781858561062c565b600191505092915050565b5f600254905090565b5f80610395610625565b90506103a285828561063e565b6103ad8585856106d1565b60019150509392505050565b5f6012905090565b5f805f8373ffffffffffffffffffffffffffffffffffffffff1673ffffffffffffffffffffffffffffffffffffffff1681526020019081526020015f20549050919050565b61040e6107c1565b6104175f610848565b565b5f60055f9054906101000a900473ffffffffffffffffffffffffffffffffffffffff16905090565b60606004805461045090611107565b80601f016020809104026020016040519081016040528092919081815260200182805461047c90611107565b80156104c75780601f1061049e576101008083540402835291602001916104c7565b820191905f5260205f20905b8154815290600101906020018083116104aa57829003601f168201915b5050505050905090565b6104d96107c1565b6104e3828261090b565b5050565b5f806104f1610625565b90506104fe8185856106d1565b600191505092915050565b6105116107c1565b61051b828261098a565b5050565b5f60015f8473ffffffffffffffffffffffffffffffffffffffff1673ffffffffffffffffffffffffffffffffffffffff1681526020019081526020015f205f8373ffffffffffffffffffffffffffffffffffffffff1673ffffffffffffffffffffffffffffffffffffffff1681526020019081526020015f2054905092915050565b6105a96107c1565b5f73ffffffffffffffffffffffffffffffffffffffff168173ffffffffffffffffffffffffffffffffffffffff1603610619575f6040517f1e4fbdf70000000000000000000000000000000000000000000000000000000081526004016106109190611083565b60405180910390fd5b61062281610848565b50565b5f33905090565b6106398383836001610a09565b505050565b5f610649848461051f565b90507fffffffffffffffffffffffffffffffffffffffffffffffffffffffffffffffff8110156106cb57818110156106bc578281836040517ffb8f41b20000000000000000000000000000000000000000000000000000000081526004016106b393929190611137565b60405180910390fd5b6106ca84848484035f610a09565b5b50505050565b5f73ffffffffffffffffffffffffffffffffffffffff168373ffffffffffffffffffffffffffffffffffffffff1603610741575f6040517f96c6fd1e0000000000000000000000000000000000000000000000000000000081526004016107389190611083565b60405180910390fd5b5f73ffffffffffffffffffffffffffffffffffffffff168273ffffffffffffffffffffffffffffffffffffffff16036107b1575f6040517fec442f050000000000000000000000000000000000000000000000000000000081526004016107a89190611083565b60405180910390fd5b6107bc838383610bd8565b505050565b6107c9610625565b73ffffffffffffffffffffffffffffffffffffffff166107e7610419565b73ffffffffffffffffffffffffffffffffffffffff16146108465761080a610625565b6040517f118cdaa700000000000000000000000000000000000000000000000000000000815260040161083d9190611083565b60405180910390fd5b565b5f60055f9054906101000a900473ffffffffffffffffffffffffffffffffffffffff1690508160055f6101000a81548173ffffffffffffffffffffffffffffffffffffffff021916908373ffffffffffffffffffffffffffffffffffffffff1602179055508173ffffffffffffffffffffffffffffffffffffffff168173ffffffffffffffffffffffffffffffffffffffff167f8be0079c531659141344cd1fd0a4f28419497f9722a3daafe3b4186f6b6457e060405160405180910390a35050565b5f73ffffffffffffffffffffffffffffffffffffffff168273ffffffffffffffffffffffffffffffffffffffff160361097b575f6040517fec442f050000000000000000000000000000000000000000000000000000000081526004016109729190611083565b60405180910390fd5b6109865f8383610bd8565b5050565b5f73ffffffffffffffffffffffffffffffffffffffff168273ffffffffffffffffffffffffffffffffffffffff16036109fa575f6040517f96c6fd1e0000000000000000000000000000000000000000000000000000000081526004016109f19190611083565b60405180910390fd5b610a05825f83610bd8565b5050565b5f73ffffffffffffffffffffffffffffffffffffffff168473ffffffffffffffffffffffffffffffffffffffff1603610a79575f6040517fe602df05000000000000000000000000000000000000000000000000000000008152600401610a709190611083565b60405180910390fd5b5f73ffffffffffffffffffffffffffffffffffffffff168373ffffffffffffffffffffffffffffffffffffffff1603610ae9575f6040517f94280d62000000000000000000000000000000000000000000000000000000008152600401610ae09190611083565b60405180910390fd5b8160015f8673ffffffffffffffffffffffffffffffffffffffff1673ffffffffffffffffffffffffffffffffffffffff1681526020019081526020015f205f8573ffffffffffffffffffffffffffffffffffffffff1673ffffffffffffffffffffffffffffffffffffffff1681526020019081526020015f20819055508015610bd2578273ffffffffffffffffffffffffffffffffffffffff168473ffffffffffffffffffffffffffffffffffffffff167f8c5be1e5ebec7d5bd14f71427d1e84f3dd0314c0f7b2291e5b200ac8c7c3b92584604051610bc99190610fac565b60405180910390a35b50505050565b5f73ffffffffffffffffffffffffffffffffffffffff168373ffffffffffffffffffffffffffffffffffffffff1603610c28578060025f828254610c1c9190611199565b92505081905550610cf6565b5f805f8573ffffffffffffffffffffffffffffffffffffffff1673ffffffffffffffffffffffffffffffffffffffff1681526020019081526020015f2054905081811015610cb1578381836040517fe450d38c000000000000000000000000000000000000000000000000000000008152600401610ca893929190611137565b60405180910390fd5b8181035f808673ffffffffffffffffffffffffffffffffffffffff1673ffffffffffffffffffffffffffffffffffffffff1681526020019081526020015f2081905550505b5f73ffffffffffffffffffffffffffffffffffffffff168273ffffffffffffffffffffffffffffffffffffffff1603610d3d578060025f8282540392505081905550610d87565b805f808473ffffffffffffffffffffffffffffffffffffffff1673ffffffffffffffffffffffffffffffffffffffff1681526020019081526020015f205f82825401925050819055505b8173ffffffffffffffffffffffffffffffffffffffff168373ffffffffffffffffffffffffffffffffffffffff167fddf252ad1be2c89b69c2b068fc378daa952ba7f163c4a11628f55a4df523b3ef83604051610de49190610fac565b60405180910390a3505050565b5f81519050919050565b5f82825260208201905092915050565b5f5b83811015610e28578082015181840152602081019050610e0d565b5f8484015250505050565b5f601f19601f8301169050919050565b5f610e4d82610df1565b610e578185610dfb565b9350610e67818560208601610e0b565b610e7081610e33565b840191505092915050565b5f6020820190508181035f830152610e938184610e43565b905092915050565b5f80fd5b5f73ffffffffffffffffffffffffffffffffffffffff82169050919050565b5f610ec882610e9f565b9050919050565b610ed881610ebe565b8114610ee2575f80fd5b50565b5f81359050610ef381610ecf565b92915050565b5f819050919050565b610f0b81610ef9565b8114610f15575f80fd5b50565b5f81359050610f2681610f02565b92915050565b5f8060408385031215610f4257610f41610e9b565b5b5f610f4f85828601610ee5565b9250506020610f6085828601610f18565b9150509250929050565b5f8115159050919050565b610f7e81610f6a565b82525050565b5f602082019050610f975f830184610f75565b92915050565b610fa681610ef9565b82525050565b5f602082019050610fbf5f830184610f9d565b92915050565b5f805f60608486031215610fdc57610fdb610e9b565b5b5f610fe986828701610ee5565b9350506020610ffa86828701610ee5565b925050604061100b86828701610f18565b9150509250925092565b5f60ff82169050919050565b61102a81611015565b82525050565b5f6020820190506110435f830184611021565b92915050565b5f6020828403121561105e5761105d610e9b565b5b5f61106b84828501610ee5565b91505092915050565b61107d81610ebe565b82525050565b5f6020820190506110965f830184611074565b92915050565b5f80604083850312156110b2576110b1610e9b565b5b5f6110bf85828601610ee5565b92505060206110d085828601610ee5565b9150509250929050565b7f4e487b71000000000000000000000000000000000000000000000000000000005f52602260045260245ffd5b5f600282049050600182168061111e57607f821691505b602082108103611131576111306110da565b5b50919050565b5f60608201905061114a5f830186611074565b6111576020830185610f9d565b6111646040830184610f9d565b949350505050565b7f4e487b71000000000000000000000000000000000000000000000000000000005f52601160045260245ffd5b5f6111a382610ef9565b91506111ae83610ef9565b92508282019050808211156111c6576111c561116c565b5b9291505056fea264697066735822122065c97094b60fc1ab72d53af66c69531ffceed7fd710542f22a5a14c6e33a4f4464736f6c63430008150033","linkReferences":{}},"methodIdentifiers":{"allowance(address,address)":"dd62ed3e","approve(address,uint256)":"095ea7b3","balanceOf(address)":"70a08231","burnItems(address,uint256)":"cda58059","decimals()":"313ce567","name()":"06fdde03","owner()":"8da5cb5b","renounceOwnership()":"715018a6","symbol()":"95d89b41","tokenizeItems(address,uint256)":"a261ea56","totalSupply()":"18160ddd","transfer(address,uint256)":"a9059cbb","transferFrom(address,address,uint256)":"23b872dd","transferOwnership(address)":"f2fde38b"},"id":24}